S00600002D454C3B
S21400000000000000000000000000000000000000EB
S21400001000000000000000000000000000000000DB
S2140000203A313100261D00C004FF7FEF370340221F
S2140000308C00404A1E040048370340220C01404A08
S2140000401E140048061500003700401A1401404AE6
S2140000503500401A3700401A040100023A301042B8
S2140000603A70124A3500401A3A880D303701801A25
S214000070CC3F805226FD3F503702801A1500801272
S2140000800401C018440080311EF8FF3135030020FB
S2140000900602000035030020060000003A0880EF44
S2140000A034008000044081103400C4000410CC18D2
S2140000B03400040104140021340040018401402966
S2140000C03401C0010440D93935024021FA700128B4
S2140000D0440040013A700128340040018401402960
S2140000E006FF3F00000000000000000000000000C7
S2140000F000000000000000000000000000000000FB
S21400010000000000000000000000000000000000EA
S21400011000000000000000000000000000000000DA
S21400012000000000000000000000000000000000CA
S8040000A05B
